{
    "contractName": "Webbb3",
    "abi": [
        {
            "inputs": [],
            "stateMutability": "nonpayable",
            "type": "constructor"
        },
        {
            "inputs": [
                {
                    "internalType": "uint256",
                    "name": "choice",
                    "type": "uint256"
                }
            ],
            "name": "addVote",
            "outputs": [],
            "stateMutability": "nonpayable",
            "type": "function"
        },
        {
            "inputs": [
                {
                    "internalType": "string",
                    "name": "option1",
                    "type": "string"
                },
                {
                    "internalType": "string",
                    "name": "option2",
                    "type": "string"
                },
                {
                    "internalType": "uint256",
                    "name": "timeToVote",
                    "type": "uint256"
                }
            ],
            "name": "addVoting",
            "outputs": [],
            "stateMutability": "nonpayable",
            "type": "function"
        },
        {
            "inputs": [],
            "name": "currentVoting",
            "outputs": [
                {
                    "internalType": "uint256",
                    "name": "",
                    "type": "uint256"
                }
            ],
            "stateMutability": "view",
            "type": "function"
        },
        {
            "inputs": [],
            "name": "getCurrentVoting",
            "outputs": [
                {
                    "components": [
                        {
                            "internalType": "string",
                            "name": "option1",
                            "type": "string"
                        },
                        {
                            "internalType": "uint256",
                            "name": "votes1",
                            "type": "uint256"
                        },
                        {
                            "internalType": "string",
                            "name": "option2",
                            "type": "string"
                        },
                        {
                            "internalType": "uint256",
                            "name": "votes2",
                            "type": "uint256"
                        },
                        {
                            "internalType": "uint256",
                            "name": "maxDate",
                            "type": "uint256"
                        }
                    ],
                    "internalType": "struct Voting",
                    "name": "",
                    "type": "tuple"
                }
            ],
            "stateMutability": "view",
            "type": "function"
        },
        {
            "inputs": [
                {
                    "internalType": "uint256",
                    "name": "",
                    "type": "uint256"
                },
                {
                    "internalType": "address",
                    "name": "",
                    "type": "address"
                }
            ],
            "name": "votes",
            "outputs": [
                {
                    "internalType": "uint256",
                    "name": "choice",
                    "type": "uint256"
                },
                {
                    "internalType": "uint256",
                    "name": "date",
                    "type": "uint256"
                }
            ],
            "stateMutability": "view",
            "type": "function"
        },
        {
            "inputs": [
                {
                    "internalType": "uint256",
                    "name": "",
                    "type": "uint256"
                }
            ],
            "name": "votings",
            "outputs": [
                {
                    "internalType": "string",
                    "name": "option1",
                    "type": "string"
                },
                {
                    "internalType": "uint256",
                    "name": "votes1",
                    "type": "uint256"
                },
                {
                    "internalType": "string",
                    "name": "option2",
                    "type": "string"
                },
                {
                    "internalType": "uint256",
                    "name": "votes2",
                    "type": "uint256"
                },
                {
                    "internalType": "uint256",
                    "name": "maxDate",
                    "type": "uint256"
                }
            ],
            "stateMutability": "view",
            "type": "function"
        }
    ],
    "bytecode": "6080604052600060015534801561001557600080fd5b50600080546001600160a01b03191633179055610b40806100376000396000f3fe608060405234801561001057600080fd5b50600436106100625760003560e01c80630383badc146100675780631c7bec9d1461007c57806355f9b1ec14610098578063a598d03c146100ab578063d23254b4146100cf578063f1156cdf14610116575b600080fd5b61007a610075366004610714565b61012b565b005b61008560015481565b6040519081526020015b60405180910390f35b61007a6100a63660046107d0565b6102e1565b6100be6100b9366004610714565b610417565b60405161008f959493929190610883565b6101016100dd3660046108c3565b60036020908152600092835260408084209091529082529020805460019091015482565b6040805192835260208301919091520161008f565b61011e61056d565b60405161008f91906108ff565b806001148061013a5750806002145b61017c5760405162461bcd60e51b815260206004820152600e60248201526d496e76616c69642063686f69636560901b60448201526064015b60405180910390fd5b4261018561056d565b60800151116101c75760405162461bcd60e51b815260206004820152600e60248201526d4e6f206f70656e20766f74696e6760901b6044820152606401610173565b60018054600090815260036020908152604080832033845290915290200154156102335760405162461bcd60e51b815260206004820181905260248201527f596f7520616c726561647920766f746564206f6e207468697320766f74696e676044820152606401610173565b6001805460009081526003602081815260408084203380865290835281852087905585548552928252808420928452919052902042908201558190036102ae5760026001548154811061028857610288610963565b6000918252602082206001600590920201018054916102a68361098f565b919050555050565b6002600154815481106102c3576102c3610963565b6000918252602082206003600590920201018054916102a68361098f565b6000546001600160a01b0316331461032c5760405162461bcd60e51b815260206004820152600e60248201526d24b73b30b634b21039b2b73232b960911b6044820152606401610173565b6001541561034a57600180549060006103448361098f565b91905055505b61037c6040518060a0016040528060608152602001600081526020016060815260200160008152602001600081525090565b8381526040810183905261039042836109a8565b608082015260028054600181018255600091909152815182916005027f405787fa12a823e0f2b7631cc41b3ba8828b3321ca811111fa75cd3aa3bb5ace019081906103db9082610a4a565b5060208201516001820155604082015160028201906103fa9082610a4a565b506060820151816003015560808201518160040155505050505050565b6002818154811061042757600080fd5b906000526020600020906005020160009150905080600001805461044a906109c1565b80601f0160208091040260200160405190810160405280929190818152602001828054610476906109c1565b80156104c35780601f10610498576101008083540402835291602001916104c3565b820191906000526020600020905b8154815290600101906020018083116104a657829003601f168201915b5050505050908060010154908060020180546104de906109c1565b80601f016020809104026020016040519081016040528092919081815260200182805461050a906109c1565b80156105575780601f1061052c57610100808354040283529160200191610557565b820191906000526020600020905b81548152906001019060200180831161053a57829003601f168201915b5050505050908060030154908060040154905085565b61059f6040518060a0016040528060608152602001600081526020016060815260200160008152602001600081525090565b6002600154815481106105b4576105b4610963565b90600052602060002090600502016040518060a00160405290816000820180546105dd906109c1565b80601f0160208091040260200160405190810160405280929190818152602001828054610609906109c1565b80156106565780601f1061062b57610100808354040283529160200191610656565b820191906000526020600020905b81548152906001019060200180831161063957829003601f168201915b5050505050815260200160018201548152602001600282018054610679906109c1565b80601f01602080910402602001604051908101604052809291908181526020018280546106a5906109c1565b80156106f25780601f106106c7576101008083540402835291602001916106f2565b820191906000526020600020905b8154815290600101906020018083116106d557829003601f168201915b5050505050815260200160038201548152602001600482015481525050905090565b60006020828403121561072657600080fd5b5035919050565b634e487b7160e01b600052604160045260246000fd5b600082601f83011261075457600080fd5b813567ffffffffffffffff8082111561076f5761076f61072d565b604051601f8301601f19908116603f011681019082821181831017156107975761079761072d565b816040528381528660208588010111156107b057600080fd5b836020870160208301376000602085830101528094505050505092915050565b6000806000606084860312156107e557600080fd5b833567ffffffffffffffff808211156107fd57600080fd5b61080987838801610743565b9450602086013591508082111561081f57600080fd5b5061082c86828701610743565b925050604084013590509250925092565b6000815180845260005b8181101561086357602081850181015186830182015201610847565b506000602082860101526020601f19601f83011685010191505092915050565b60a08152600061089660a083018861083d565b86602084015282810360408401526108ae818761083d565b60608401959095525050608001529392505050565b600080604083850312156108d657600080fd5b8235915060208301356001600160a01b03811681146108f457600080fd5b809150509250929050565b602081526000825160a0602084015261091b60c084018261083d565b9050602084015160408401526040840151601f19848303016060850152610942828261083d565b91505060608401516080840152608084015160a08401528091505092915050565b634e487b7160e01b600052603260045260246000fd5b634e487b7160e01b600052601160045260246000fd5b6000600182016109a1576109a1610979565b5060010190565b808201808211156109bb576109bb610979565b92915050565b600181811c908216806109d557607f821691505b6020821081036109f557634e487b7160e01b600052602260045260246000fd5b50919050565b601f821115610a4557600081815260208120601f850160051c81016020861015610a225750805b601f850160051c820191505b81811015610a4157828155600101610a2e565b5050505b505050565b815167ffffffffffffffff811115610a6457610a6461072d565b610a7881610a7284546109c1565b846109fb565b602080601f831160018114610aad5760008415610a955750858301515b600019600386901b1c1916600185901b178555610a41565b600085815260208120601f198616915b82811015610adc57888601518255948401946001909101908401610abd565b5085821015610afa5787850151600019600388901b60f8161c191681555b5050505050600190811b0190555056fea26469706673582212200ebfcd932c60e091d55c5f93672a5fd17d7d624b48481294d43b7fb1469731ae64736f6c63430008130033",
    "sourcePath": "c:/Users/carlo/OneDrive/Documentos/GitHub/WEB_3/Webbb3.sol",
    "compiler": {
        "name": "solc",
        "version": "0.8.19+commit.7dd6d404"
    },
    "functionHashes": {
        "addVote(uint256)": "0383badc",
        "addVoting(string,string,uint256)": "55f9b1ec",
        "currentVoting()": "1c7bec9d",
        "getCurrentVoting()": "f1156cdf",
        "votes(uint256,address)": "d23254b4",
        "votings(uint256)": "a598d03c"
    },
    "gasEstimates": {
        "creation": {
            "codeDepositCost": "576000",
            "executionCost": "29847",
            "totalCost": "605847"
        },
        "external": {
            "addVote(uint256)": "infinite",
            "addVoting(string,string,uint256)": "infinite",
            "currentVoting()": "2284",
            "getCurrentVoting()": "infinite",
            "votes(uint256,address)": "4792",
            "votings(uint256)": "infinite"
        }
    }
}